{
  "_format": "hh-sol-artifact-1",
  "contractName": "Hashi",
  "sourceName": "contracts/Hashi.sol",
  "abi": [
    {
      "inputs": [
        {
          "internalType": "address",
          "name": "emitter",
          "type": "address"
        }
      ],
      "name": "NoOracleAdaptersGiven",
      "type": "error"
    },
    {
      "inputs": [
        {
          "internalType": "address",
          "name": "emitter",
          "type": "address"
        },
        {
          "internalType": "contract IOracleAdapter",
          "name": "oracleAdapter",
          "type": "address"
        }
      ],
      "name": "OracleDidNotReport",
      "type": "error"
    },
    {
      "inputs": [
        {
          "internalType": "address",
          "name": "emitter",
          "type": "address"
        },
        {
          "internalType": "contract IOracleAdapter",
          "name": "oracleOne",
          "type": "address"
        },
        {
          "internalType": "contract IOracleAdapter",
          "name": "oracleTwo",
          "type": "address"
        }
      ],
      "name": "OraclesDisagree",
      "type": "error"
    },
    {
      "inputs": [
        {
          "internalType": "uint256",
          "name": "domain",
          "type": "uint256"
        },
        {
          "internalType": "uint256",
          "name": "id",
          "type": "uint256"
        },
        {
          "internalType": "contract IOracleAdapter[]",
          "name": "oracleAdapters",
          "type": "address[]"
        }
      ],
      "name": "getHash",
      "outputs": [
        {
          "internalType": "bytes32",
          "name": "hash",
          "type": "bytes32"
        }
      ],
      "stateMutability": "view",
      "type": "function"
    },
    {
      "inputs": [
        {
          "internalType": "contract IOracleAdapter",
          "name": "oracleAdapter",
          "type": "address"
        },
        {
          "internalType": "uint256",
          "name": "domain",
          "type": "uint256"
        },
        {
          "internalType": "uint256",
          "name": "id",
          "type": "uint256"
        }
      ],
      "name": "getHashFromOracle",
      "outputs": [
        {
          "internalType": "bytes32",
          "name": "hash",
          "type": "bytes32"
        }
      ],
      "stateMutability": "view",
      "type": "function"
    },
    {
      "inputs": [
        {
          "internalType": "contract IOracleAdapter[]",
          "name": "oracleAdapters",
          "type": "address[]"
        },
        {
          "internalType": "uint256",
          "name": "domain",
          "type": "uint256"
        },
        {
          "internalType": "uint256",
          "name": "id",
          "type": "uint256"
        }
      ],
      "name": "getHashesFromOracles",
      "outputs": [
        {
          "internalType": "bytes32[]",
          "name": "",
          "type": "bytes32[]"
        }
      ],
      "stateMutability": "view",
      "type": "function"
    }
  ],
  "bytecode": "0x608060405234801561001057600080fd5b50610604806100206000396000f3fe608060405234801561001057600080fd5b50600436106100415760003560e01c80633e144098146100465780639e03f8c91461006f578063ead2275414610090575b600080fd5b61005961005436600461046b565b6100a3565b60405161006691906104b9565b60405180910390f35b61008261007d3660046104fd565b61017e565b604051908152602001610066565b61008261009e366004610530565b6101f9565b606083516000036100ce5760405163c1a9bd2f60e01b81523060048201526024015b60405180910390fd5b6000845167ffffffffffffffff8111156100ea576100ea610397565b604051908082528060200260200182016040528015610113578160200160208202803683370190505b50905060005b85518110156101755761014686828151811061013757610137610580565b6020026020010151868661017e565b82828151811061015857610158610580565b60209081029190910101528061016d816105ac565b915050610119565b50949350505050565b604051638599a96960e01b815260048101839052602481018290526000906001600160a01b03851690638599a96990604401602060405180830381865afa1580156101cd573d6000803e3d6000fd5b505050506040513d601f19601f820116820180604052508101906101f191906105c5565b949350505050565b6000815160000361021f5760405163c1a9bd2f60e01b81523060048201526024016100c5565b600061022c8386866100a3565b90508060008151811061024157610241610580565b602002602001015191506000801b82036102a157308360008151811061026957610269610580565b6020026020010151604051632a0c203960e01b81526004016100c59291906001600160a01b0392831681529116602082015260400190565b60015b815181101561038e576000801b8282815181106102c3576102c3610580565b6020026020010151036102e3573084828151811061026957610269610580565b8181815181106102f5576102f5610580565b6020026020010151831461037c5730846103106001846105de565b8151811061032057610320610580565b602002602001015185838151811061033a5761033a610580565b602002602001015160405163dbed4b2760e01b81526004016100c5939291906001600160a01b0393841681529183166020830152909116604082015260600190565b80610386816105ac565b9150506102a4565b50509392505050565b634e487b7160e01b600052604160045260246000fd5b80356001600160a01b03811681146103c457600080fd5b919050565b600082601f8301126103da57600080fd5b8135602067ffffffffffffffff808311156103f7576103f7610397565b8260051b604051601f19603f8301168101818110848211171561041c5761041c610397565b60405293845285810183019383810192508785111561043a57600080fd5b83870191505b8482101561046057610451826103ad565b83529183019190830190610440565b979650505050505050565b60008060006060848603121561048057600080fd5b833567ffffffffffffffff81111561049757600080fd5b6104a3868287016103c9565b9660208601359650604090950135949350505050565b6020808252825182820181905260009190848201906040850190845b818110156104f1578351835292840192918401916001016104d5565b50909695505050505050565b60008060006060848603121561051257600080fd5b61051b846103ad565b95602085013595506040909401359392505050565b60008060006060848603121561054557600080fd5b8335925060208401359150604084013567ffffffffffffffff81111561056a57600080fd5b610576868287016103c9565b9150509250925092565b634e487b7160e01b600052603260045260246000fd5b634e487b7160e01b600052601160045260246000fd5b6000600182016105be576105be610596565b5060010190565b6000602082840312156105d757600080fd5b5051919050565b818103818111156105f1576105f1610596565b9291505056fea164736f6c6343000811000a",
  "linkReferences": {},
  "deployedLinkReferences": {}
}