{
    "_format": "hh-sol-artifact-1",
    "contractName": "VRFv2DirectFundingConsumer",
    "sourceName": "contracts/VRFv2DirectFundingConsumer.sol",
    "abi": [
        {
            "inputs": [],
            "stateMutability": "nonpayable",
            "type": "constructor"
        },
        {
            "anonymous": false,
            "inputs": [
                {
                    "indexed": true,
                    "internalType": "address",
                    "name": "from",
                    "type": "address"
                },
                {
                    "indexed": true,
                    "internalType": "address",
                    "name": "to",
                    "type": "address"
                }
            ],
            "name": "OwnershipTransferRequested",
            "type": "event"
        },
        {
            "anonymous": false,
            "inputs": [
                {
                    "indexed": true,
                    "internalType": "address",
                    "name": "from",
                    "type": "address"
                },
                {
                    "indexed": true,
                    "internalType": "address",
                    "name": "to",
                    "type": "address"
                }
            ],
            "name": "OwnershipTransferred",
            "type": "event"
        },
        {
            "anonymous": false,
            "inputs": [
                {
                    "indexed": false,
                    "internalType": "uint256",
                    "name": "requestId",
                    "type": "uint256"
                },
                {
                    "indexed": false,
                    "internalType": "uint256[]",
                    "name": "randomWords",
                    "type": "uint256[]"
                },
                {
                    "indexed": false,
                    "internalType": "uint256",
                    "name": "payment",
                    "type": "uint256"
                }
            ],
            "name": "RequestFulfilled",
            "type": "event"
        },
        {
            "anonymous": false,
            "inputs": [
                {
                    "indexed": false,
                    "internalType": "uint256",
                    "name": "requestId",
                    "type": "uint256"
                },
                {
                    "indexed": false,
                    "internalType": "uint32",
                    "name": "numWords",
                    "type": "uint32"
                }
            ],
            "name": "RequestSent",
            "type": "event"
        },
        {
            "inputs": [],
            "name": "acceptOwnership",
            "outputs": [],
            "stateMutability": "nonpayable",
            "type": "function"
        },
        {
            "inputs": [
                {
                    "internalType": "uint256",
                    "name": "_requestId",
                    "type": "uint256"
                }
            ],
            "name": "getRequestStatus",
            "outputs": [
                {
                    "internalType": "uint256",
                    "name": "paid",
                    "type": "uint256"
                },
                {
                    "internalType": "bool",
                    "name": "fulfilled",
                    "type": "bool"
                },
                {
                    "internalType": "uint256[]",
                    "name": "randomWords",
                    "type": "uint256[]"
                }
            ],
            "stateMutability": "view",
            "type": "function"
        },
        {
            "inputs": [],
            "name": "lastRequestId",
            "outputs": [
                {
                    "internalType": "uint256",
                    "name": "",
                    "type": "uint256"
                }
            ],
            "stateMutability": "view",
            "type": "function"
        },
        {
            "inputs": [],
            "name": "owner",
            "outputs": [
                {
                    "internalType": "address",
                    "name": "",
                    "type": "address"
                }
            ],
            "stateMutability": "view",
            "type": "function"
        },
        {
            "inputs": [
                {
                    "internalType": "uint256",
                    "name": "_requestId",
                    "type": "uint256"
                },
                {
                    "internalType": "uint256[]",
                    "name": "_randomWords",
                    "type": "uint256[]"
                }
            ],
            "name": "rawFulfillRandomWords",
            "outputs": [],
            "stateMutability": "nonpayable",
            "type": "function"
        },
        {
            "inputs": [
                {
                    "internalType": "uint256",
                    "name": "",
                    "type": "uint256"
                }
            ],
            "name": "requestIds",
            "outputs": [
                {
                    "internalType": "uint256",
                    "name": "",
                    "type": "uint256"
                }
            ],
            "stateMutability": "view",
            "type": "function"
        },
        {
            "inputs": [],
            "name": "requestRandomWords",
            "outputs": [
                {
                    "internalType": "uint256",
                    "name": "requestId",
                    "type": "uint256"
                }
            ],
            "stateMutability": "nonpayable",
            "type": "function"
        },
        {
            "inputs": [
                {
                    "internalType": "uint256",
                    "name": "",
                    "type": "uint256"
                }
            ],
            "name": "s_requests",
            "outputs": [
                {
                    "internalType": "uint256",
                    "name": "paid",
                    "type": "uint256"
                },
                {
                    "internalType": "bool",
                    "name": "fulfilled",
                    "type": "bool"
                }
            ],
            "stateMutability": "view",
            "type": "function"
        },
        {
            "inputs": [
                {
                    "internalType": "address",
                    "name": "to",
                    "type": "address"
                }
            ],
            "name": "transferOwnership",
            "outputs": [],
            "stateMutability": "nonpayable",
            "type": "function"
        },
        {
            "inputs": [],
            "name": "withdrawLink",
            "outputs": [],
            "stateMutability": "nonpayable",
            "type": "function"
        }
    ],
    "bytecode": "0x60c0604052600580547d326c977e6efc84e512bb9c30f76e30c160ed06fb000000020003000186a06001600160f01b0319909116179055600680546001600160a01b03191673708701a1dff4f478de54383e49a627ed4852c81617905534801561006857600080fd5b506005546006546001600160a01b036a010000000000000000000090920482166080521660a05233806000816100e55760405162461bcd60e51b815260206004820152601860248201527f43616e6e6f7420736574206f776e657220746f207a65726f000000000000000060448201526064015b60405180910390fd5b600080546001600160a01b0319166001600160a01b0384811691909117909155811615610115576101158161011d565b5050506101c6565b336001600160a01b038216036101755760405162461bcd60e51b815260206004820152601760248201527f43616e6e6f74207472616e7366657220746f2073656c6600000000000000000060448201526064016100dc565b600180546001600160a01b0319166001600160a01b0383811691821790925560008054604051929316917fed8889f560326eb138920d842192f0eb3dd22b4f139c87a2c57538e05bae12789190a350565b60805160a051610d78610200600039600081816101990152818161056e01528181610851015261095a015260006108270152610d786000f3fe608060405234801561001057600080fd5b506004361061009e5760003560e01c8063a168fa8911610066578063a168fa8914610109578063d8a4676f14610148578063e0c862891461016a578063f2fde38b14610172578063fc2a88c31461018557600080fd5b80631fe543e3146100a357806379ba5097146100b85780638796ba8c146100c05780638da5cb5b146100e65780638dc654a214610101575b600080fd5b6100b66100b1366004610b01565b61018e565b005b6100b6610219565b6100d36100ce366004610bcb565b6102c3565b6040519081526020015b60405180910390f35b6000546040516001600160a01b0390911681526020016100dd565b6100b66102e4565b610133610117366004610bcb565b6002602052600090815260409020805460019091015460ff1682565b604080519283529015156020830152016100dd565b61015b610156366004610bcb565b61041d565b6040516100dd93929190610c1f565b6100d3610509565b6100b6610180366004610c49565b6106c8565b6100d360045481565b336001600160a01b037f0000000000000000000000000000000000000000000000000000000000000000161461020b5760405162461bcd60e51b815260206004820152601f60248201527f6f6e6c792056524620563220777261707065722063616e2066756c66696c6c0060448201526064015b60405180910390fd5b61021582826106d9565b5050565b6001546001600160a01b0316331461026c5760405162461bcd60e51b815260206004820152601660248201527526bab9ba10313290383937b837b9b2b21037bbb732b960511b6044820152606401610202565b60008054336001600160a01b0319808316821784556001805490911690556040516001600160a01b0390921692909183917f8be0079c531659141344cd1fd0a4f28419497f9722a3daafe3b4186f6b6457e091a350565b600381815481106102d357600080fd5b600091825260209091200154905081565b6102ec6107ac565b6005546040516370a0823160e01b8152306004820152600160501b9091046001600160a01b031690819063a9059cbb90339083906370a0823190602401602060405180830381865afa158015610346573d6000803e3d6000fd5b505050506040513d601f19601f8201168201806040525081019061036a9190610c79565b6040516001600160e01b031960e085901b1681526001600160a01b03909216600483015260248201526044016020604051808303816000875af11580156103b5573d6000803e3d6000fd5b505050506040513d601f19601f820116820180604052508101906103d99190610c92565b61041a5760405162461bcd60e51b81526020600482015260126024820152712ab730b13632903a37903a3930b739b332b960711b6044820152606401610202565b50565b60008181526002602052604081205481906060906104715760405162461bcd60e51b81526020600482015260116024820152701c995c5d595cdd081b9bdd08199bdd5b99607a1b6044820152606401610202565b6000848152600260208181526040808420815160608101835281548152600182015460ff16151581850152938101805483518186028101860185528181529294938601938301828280156104e457602002820191906000526020600020905b8154815260200190600101908083116104d0575b5050509190925250508151602083015160409093015190989297509550909350505050565b60006105136107ac565b6005546105419063ffffffff8082169161ffff64010000000082041691660100000000000090910416610801565b6040805160608101918290526005546310c1b4d560e21b90925263ffffffff9091166064820152909150807f00000000000000000000000000000000000000000000000000000000000000006001600160a01b0316634306d35460848301602060405180830381865afa1580156105bc573d6000803e3d6000fd5b505050506040513d601f19601f820116820180604052508101906105e09190610c79565b81526000602080830182905260408051838152808301825293810193909352848252600280825291839020845181558482015160018201805460ff191691151591909117905592840151805161063d938501929190910190610a8b565b5050600380546001810182556000919091527fc2575a0e9e593c00f959f8c92f12db2869c3395a3b0502d05e2516446f71f85b0182905550600481905560055460408051838152660100000000000090920463ffffffff1660208301527fcc58b13ad3eab50626c6a6300b1d139cd6ebb1688a7cced9461c2f7e762665ee910160405180910390a190565b6106d06107ac565b61041a816109e2565b6000828152600260205260409020546107285760405162461bcd60e51b81526020600482015260116024820152701c995c5d595cdd081b9bdd08199bdd5b99607a1b6044820152606401610202565b60008281526002602081815260409092206001818101805460ff19169091179055835161075d93919092019190840190610a8b565b50600082815260026020526040908190205490517f147eb1ff0c82f87f2b03e2c43f5a36488ff63ec6b730195fde4605f612f8db51916107a09185918591610cb4565b60405180910390a15050565b6000546001600160a01b031633146107ff5760405162461bcd60e51b815260206004820152601660248201527527b7363c9031b0b63630b1363290313c9037bbb732b960511b6044820152606401610202565b565b6040516310c1b4d560e21b815263ffffffff841660048201526000906001600160a01b037f0000000000000000000000000000000000000000000000000000000000000000811691634000aea0917f00000000000000000000000000000000000000000000000000000000000000009190821690634306d35490602401602060405180830381865afa15801561089b573d6000803e3d6000fd5b505050506040513d601f19601f820116820180604052508101906108bf9190610c79565b6040805163ffffffff808b16602083015261ffff8a169282019290925290871660608201526080016040516020818303038152906040526040518463ffffffff1660e01b815260040161091493929190610cdd565b6020604051808303816000875af1158015610933573d6000803e3d6000fd5b505050506040513d601f19601f820116820180604052508101906109579190610c92565b507f00000000000000000000000000000000000000000000000000000000000000006001600160a01b031663fc2a88c36040518163ffffffff1660e01b8152600401602060405180830381865afa1580156109b6573d6000803e3d6000fd5b505050506040513d601f19601f820116820180604052508101906109da9190610c79565b949350505050565b336001600160a01b03821603610a3a5760405162461bcd60e51b815260206004820152601760248201527f43616e6e6f74207472616e7366657220746f2073656c660000000000000000006044820152606401610202565b600180546001600160a01b0319166001600160a01b0383811691821790925560008054604051929316917fed8889f560326eb138920d842192f0eb3dd22b4f139c87a2c57538e05bae12789190a350565b828054828255906000526020600020908101928215610ac6579160200282015b82811115610ac6578251825591602001919060010190610aab565b50610ad2929150610ad6565b5090565b5b80821115610ad25760008155600101610ad7565b634e487b7160e01b600052604160045260246000fd5b60008060408385031215610b1457600080fd5b8235915060208084013567ffffffffffffffff80821115610b3457600080fd5b818601915086601f830112610b4857600080fd5b813581811115610b5a57610b5a610aeb565b8060051b604051601f19603f83011681018181108582111715610b7f57610b7f610aeb565b604052918252848201925083810185019189831115610b9d57600080fd5b938501935b82851015610bbb57843584529385019392850192610ba2565b8096505050505050509250929050565b600060208284031215610bdd57600080fd5b5035919050565b600081518084526020808501945080840160005b83811015610c1457815187529582019590820190600101610bf8565b509495945050505050565b8381528215156020820152606060408201526000610c406060830184610be4565b95945050505050565b600060208284031215610c5b57600080fd5b81356001600160a01b0381168114610c7257600080fd5b9392505050565b600060208284031215610c8b57600080fd5b5051919050565b600060208284031215610ca457600080fd5b81518015158114610c7257600080fd5b838152606060208201526000610ccd6060830185610be4565b9050826040830152949350505050565b60018060a01b038416815260006020848184015260606040840152835180606085015260005b81811015610d1f57858101830151858201608001528201610d03565b506000608082860101526080601f19601f8301168501019250505094935050505056fea26469706673582212204ca91c72e4625e8d7c17b1a0a22b67fdea527a1b5de6f5a0bb506225ede9063e64736f6c63430008110033",
    "linkReferences": {},
    "deployedLinkReferences": {}
}