{
  "_format": "hh-sol-artifact-1",
  "contractName": "Yaho",
  "sourceName": "contracts/Yaho.sol",
  "abi": [
    {
      "inputs": [
        {
          "internalType": "address",
          "name": "emitter",
          "type": "address"
        }
      ],
      "name": "NoAdaptersGiven",
      "type": "error"
    },
    {
      "inputs": [
        {
          "internalType": "address",
          "name": "emitter",
          "type": "address"
        }
      ],
      "name": "NoMessageIdsGiven",
      "type": "error"
    },
    {
      "inputs": [
        {
          "internalType": "address",
          "name": "emitter",
          "type": "address"
        }
      ],
      "name": "NoMessagesGiven",
      "type": "error"
    },
    {
      "inputs": [
        {
          "internalType": "address",
          "name": "emitter",
          "type": "address"
        }
      ],
      "name": "UnequalArrayLengths",
      "type": "error"
    },
    {
      "anonymous": false,
      "inputs": [
        {
          "indexed": true,
          "internalType": "bytes32",
          "name": "messageId",
          "type": "bytes32"
        },
        {
          "indexed": true,
          "internalType": "address",
          "name": "from",
          "type": "address"
        },
        {
          "indexed": true,
          "internalType": "uint256",
          "name": "toChainId",
          "type": "uint256"
        },
        {
          "indexed": false,
          "internalType": "address",
          "name": "to",
          "type": "address"
        },
        {
          "indexed": false,
          "internalType": "bytes",
          "name": "data",
          "type": "bytes"
        }
      ],
      "name": "MessageDispatched",
      "type": "event"
    },
    {
      "inputs": [
        {
          "internalType": "uint256",
          "name": "chainId",
          "type": "uint256"
        },
        {
          "internalType": "uint256",
          "name": "id",
          "type": "uint256"
        },
        {
          "internalType": "address",
          "name": "origin",
          "type": "address"
        },
        {
          "internalType": "address",
          "name": "sender",
          "type": "address"
        },
        {
          "components": [
            {
              "internalType": "address",
              "name": "to",
              "type": "address"
            },
            {
              "internalType": "uint256",
              "name": "toChainId",
              "type": "uint256"
            },
            {
              "internalType": "bytes",
              "name": "data",
              "type": "bytes"
            }
          ],
          "internalType": "struct Message",
          "name": "message",
          "type": "tuple"
        }
      ],
      "name": "calculateHash",
      "outputs": [
        {
          "internalType": "bytes32",
          "name": "calculatedHash",
          "type": "bytes32"
        }
      ],
      "stateMutability": "pure",
      "type": "function"
    },
    {
      "inputs": [
        {
          "components": [
            {
              "internalType": "address",
              "name": "to",
              "type": "address"
            },
            {
              "internalType": "uint256",
              "name": "toChainId",
              "type": "uint256"
            },
            {
              "internalType": "bytes",
              "name": "data",
              "type": "bytes"
            }
          ],
          "internalType": "struct Message[]",
          "name": "messages",
          "type": "tuple[]"
        }
      ],
      "name": "dispatchMessages",
      "outputs": [
        {
          "internalType": "bytes32[]",
          "name": "",
          "type": "bytes32[]"
        }
      ],
      "stateMutability": "payable",
      "type": "function"
    },
    {
      "inputs": [
        {
          "components": [
            {
              "internalType": "address",
              "name": "to",
              "type": "address"
            },
            {
              "internalType": "uint256",
              "name": "toChainId",
              "type": "uint256"
            },
            {
              "internalType": "bytes",
              "name": "data",
              "type": "bytes"
            }
          ],
          "internalType": "struct Message[]",
          "name": "messages",
          "type": "tuple[]"
        },
        {
          "internalType": "address[]",
          "name": "adapters",
          "type": "address[]"
        },
        {
          "internalType": "address[]",
          "name": "destinationAdapters",
          "type": "address[]"
        }
      ],
      "name": "dispatchMessagesToAdapters",
      "outputs": [
        {
          "internalType": "bytes32[]",
          "name": "messageIds",
          "type": "bytes32[]"
        },
        {
          "internalType": "bytes32[]",
          "name": "",
          "type": "bytes32[]"
        }
      ],
      "stateMutability": "payable",
      "type": "function"
    },
    {
      "inputs": [
        {
          "internalType": "uint256",
          "name": "",
          "type": "uint256"
        }
      ],
      "name": "hashes",
      "outputs": [
        {
          "internalType": "bytes32",
          "name": "",
          "type": "bytes32"
        }
      ],
      "stateMutability": "view",
      "type": "function"
    },
    {
      "inputs": [
        {
          "internalType": "uint256[]",
          "name": "messageIds",
          "type": "uint256[]"
        },
        {
          "internalType": "address[]",
          "name": "adapters",
          "type": "address[]"
        },
        {
          "internalType": "address[]",
          "name": "destinationAdapters",
          "type": "address[]"
        }
      ],
      "name": "relayMessagesToAdapters",
      "outputs": [
        {
          "internalType": "bytes32[]",
          "name": "",
          "type": "bytes32[]"
        }
      ],
      "stateMutability": "payable",
      "type": "function"
    }
  ],
  "bytecode": "0x608060405234801561001057600080fd5b50610cf7806100206000396000f3fe60806040526004361061005a5760003560e01c8063501895ae11610043578063501895ae146100a9578063883d3f8f146100e4578063f0edcc5c146100f757600080fd5b80631d3bf1e31461005f5780633ced3d2a14610089575b600080fd5b61007261006d3660046108fd565b610117565b6040516100809291906109c0565b60405180910390f35b61009c6100973660046109ee565b610321565b6040516100809190610a92565b3480156100b557600080fd5b506100d66100c4366004610aac565b60006020819052908152604090205481565b604051908152602001610080565b61009c6100f2366004610ac5565b6104be565b34801561010357600080fd5b506100d6610112366004610b02565b610665565b606080835160000361014357604051639750033760e01b81523060048201526024015b60405180910390fd5b61014c856104be565b91506000825167ffffffffffffffff81111561016a5761016a6106a1565b604051908082528060200260200182016040528015610193578160200160208202803683370190505b50905060005b83518110156101ee578381815181106101b4576101b4610b74565b602002602001015160001c8282815181106101d1576101d1610b74565b6020908102919091010152806101e681610b8a565b915050610199565b506000855167ffffffffffffffff81111561020b5761020b6106a1565b604051908082528060200260200182016040528015610234578160200160208202803683370190505b50905060005b86518110156103155786818151811061025557610255610b74565b60200260200101516001600160a01b0316638781247a8488848151811061027e5761027e610b74565b60200260200101516040518363ffffffff1660e01b81526004016102a3929190610bb1565b6020604051808303816000875af11580156102c2573d6000803e3d6000fd5b505050506040513d601f19601f820116820180604052508101906102e69190610c05565b8282815181106102f8576102f8610b74565b60209081029190910101528061030d81610b8a565b91505061023a565b50915050935093915050565b60608351600003610347576040516365625ef560e01b815230600482015260240161013a565b825160000361036b57604051639750033760e01b815230600482015260240161013a565b815183511461038f5760405163018a4ee960e01b815230600482015260240161013a565b6000835167ffffffffffffffff8111156103ab576103ab6106a1565b6040519080825280602002602001820160405280156103d4578160200160208202803683370190505b50905060005b84518110156104b5578481815181106103f5576103f5610b74565b60200260200101516001600160a01b0316638781247a8786848151811061041e5761041e610b74565b60200260200101516040518363ffffffff1660e01b8152600401610443929190610bb1565b6020604051808303816000875af1158015610462573d6000803e3d6000fd5b505050506040513d601f19601f820116820180604052508101906104869190610c05565b82828151811061049857610498610b74565b6020908102919091010152806104ad81610b8a565b9150506103da565b50949350505050565b606081516000036104e45760405163d6f3d11560e01b815230600482015260240161013a565b6000825167ffffffffffffffff811115610500576105006106a1565b604051908082528060200260200182016040528015610529578160200160208202803683370190505b50905060005b835181101561065e57600060015490506105654682303389878151811061055857610558610b74565b6020026020010151610665565b6000828152602081905260409020558251819084908490811061058a5761058a610b74565b6020026020010181815250508482815181106105a8576105a8610b74565b602002602001015160200151336001600160a01b03168260001b7fe2f8f20ddbedfce5eb59a8b930077e7f4906a01300b9318db5f90d1c96c7b6d48886815181106105f5576105f5610b74565b60200260200101516000015189878151811061061357610613610b74565b60200260200101516040015160405161062d929190610c64565b60405180910390a46001805490600061064583610b8a565b919050555050808061065690610b8a565b91505061052f565b5092915050565b60008585858585604051602001610680959493929190610c86565b60405160208183030381529060405280519060200120905095945050505050565b634e487b7160e01b600052604160045260246000fd5b6040516060810167ffffffffffffffff811182821017156106da576106da6106a1565b60405290565b604051601f8201601f1916810167ffffffffffffffff81118282101715610709576107096106a1565b604052919050565b600067ffffffffffffffff82111561072b5761072b6106a1565b5060051b60200190565b80356001600160a01b038116811461074c57600080fd5b919050565b60006060828403121561076357600080fd5b61076b6106b7565b905061077682610735565b815260208083013581830152604083013567ffffffffffffffff8082111561079d57600080fd5b818501915085601f8301126107b157600080fd5b8135818111156107c3576107c36106a1565b6107d5601f8201601f191685016106e0565b915080825286848285010111156107eb57600080fd5b808484018584013760008482840101525080604085015250505092915050565b600082601f83011261081c57600080fd5b8135602061083161082c83610711565b6106e0565b82815260059290921b8401810191818101908684111561085057600080fd5b8286015b8481101561089057803567ffffffffffffffff8111156108745760008081fd5b6108828986838b0101610751565b845250918301918301610854565b509695505050505050565b600082601f8301126108ac57600080fd5b813560206108bc61082c83610711565b82815260059290921b840181019181810190868411156108db57600080fd5b8286015b84811015610890576108f081610735565b83529183019183016108df565b60008060006060848603121561091257600080fd5b833567ffffffffffffffff8082111561092a57600080fd5b6109368783880161080b565b9450602086013591508082111561094c57600080fd5b6109588783880161089b565b9350604086013591508082111561096e57600080fd5b5061097b8682870161089b565b9150509250925092565b600081518084526020808501945080840160005b838110156109b557815187529582019590820190600101610999565b509495945050505050565b6040815260006109d36040830185610985565b82810360208401526109e58185610985565b95945050505050565b600080600060608486031215610a0357600080fd5b833567ffffffffffffffff80821115610a1b57600080fd5b818601915086601f830112610a2f57600080fd5b81356020610a3f61082c83610711565b82815260059290921b8401810191818101908a841115610a5e57600080fd5b948201945b83861015610a7c57853582529482019490820190610a63565b9750508701359250508082111561094c57600080fd5b602081526000610aa56020830184610985565b9392505050565b600060208284031215610abe57600080fd5b5035919050565b600060208284031215610ad757600080fd5b813567ffffffffffffffff811115610aee57600080fd5b610afa8482850161080b565b949350505050565b600080600080600060a08688031215610b1a57600080fd5b8535945060208601359350610b3160408701610735565b9250610b3f60608701610735565b9150608086013567ffffffffffffffff811115610b5b57600080fd5b610b6788828901610751565b9150509295509295909350565b634e487b7160e01b600052603260045260246000fd5b600060018201610baa57634e487b7160e01b600052601160045260246000fd5b5060010190565b604080825283519082018190526000906020906060840190828701845b82811015610bea57815184529284019290840190600101610bce565b5050506001600160a01b039490941692019190915250919050565b600060208284031215610c1757600080fd5b5051919050565b6000815180845260005b81811015610c4457602081850181015186830182015201610c28565b506000602082860101526020601f19601f83011685010191505092915050565b6001600160a01b0383168152604060208201526000610afa6040830184610c1e565b85815284602082015260006001600160a01b038086166040840152808516606084015260a060808401528084511660a084015250602083015160c08301526040830151606060e0840152610cde610100840182610c1e565b9897505050505050505056fea164736f6c6343000811000a",
  "linkReferences": {},
  "deployedLinkReferences": {}
}