{
  "_format": "hh-sol-artifact-1",
  "contractName": "Yaru",
  "sourceName": "contracts/Yaru.sol",
  "abi": [
    {
      "inputs": [
        {
          "internalType": "contract IHashi",
          "name": "_hashi",
          "type": "address"
        },
        {
          "internalType": "address",
          "name": "_yaho",
          "type": "address"
        },
        {
          "internalType": "uint256",
          "name": "_chainId",
          "type": "uint256"
        }
      ],
      "stateMutability": "nonpayable",
      "type": "constructor"
    },
    {
      "inputs": [
        {
          "internalType": "address",
          "name": "emitter",
          "type": "address"
        },
        {
          "internalType": "uint256",
          "name": "id",
          "type": "uint256"
        }
      ],
      "name": "AlreadyExecuted",
      "type": "error"
    },
    {
      "inputs": [
        {
          "internalType": "address",
          "name": "emitter",
          "type": "address"
        },
        {
          "internalType": "uint256",
          "name": "id",
          "type": "uint256"
        }
      ],
      "name": "CallFailed",
      "type": "error"
    },
    {
      "inputs": [
        {
          "internalType": "address",
          "name": "emitter",
          "type": "address"
        },
        {
          "internalType": "uint256",
          "name": "id",
          "type": "uint256"
        },
        {
          "internalType": "bytes32",
          "name": "reportedHash",
          "type": "bytes32"
        },
        {
          "internalType": "bytes32",
          "name": "calculatedHash",
          "type": "bytes32"
        }
      ],
      "name": "HashMismatch",
      "type": "error"
    },
    {
      "inputs": [
        {
          "internalType": "address",
          "name": "emitter",
          "type": "address"
        },
        {
          "internalType": "address",
          "name": "sender",
          "type": "address"
        }
      ],
      "name": "InvalidSender",
      "type": "error"
    },
    {
      "inputs": [
        {
          "internalType": "address",
          "name": "",
          "type": "address"
        }
      ],
      "name": "ReentranceNotAllowed",
      "type": "error"
    },
    {
      "inputs": [
        {
          "internalType": "address",
          "name": "emitter",
          "type": "address"
        }
      ],
      "name": "UnequalArrayLengths",
      "type": "error"
    },
    {
      "anonymous": false,
      "inputs": [
        {
          "indexed": true,
          "internalType": "uint256",
          "name": "fromChainId",
          "type": "uint256"
        },
        {
          "indexed": true,
          "internalType": "bytes32",
          "name": "messageId",
          "type": "bytes32"
        }
      ],
      "name": "MessageIdExecuted",
      "type": "event"
    },
    {
      "inputs": [],
      "name": "adapters",
      "outputs": [
        {
          "internalType": "contract IOracleAdapter[]",
          "name": "",
          "type": "address[]"
        }
      ],
      "stateMutability": "view",
      "type": "function"
    },
    {
      "inputs": [
        {
          "internalType": "uint256",
          "name": "chainId",
          "type": "uint256"
        },
        {
          "internalType": "uint256",
          "name": "id",
          "type": "uint256"
        },
        {
          "internalType": "address",
          "name": "origin",
          "type": "address"
        },
        {
          "internalType": "address",
          "name": "sender",
          "type": "address"
        },
        {
          "components": [
            {
              "internalType": "address",
              "name": "to",
              "type": "address"
            },
            {
              "internalType": "uint256",
              "name": "toChainId",
              "type": "uint256"
            },
            {
              "internalType": "bytes",
              "name": "data",
              "type": "bytes"
            }
          ],
          "internalType": "struct Message",
          "name": "message",
          "type": "tuple"
        }
      ],
      "name": "calculateHash",
      "outputs": [
        {
          "internalType": "bytes32",
          "name": "calculatedHash",
          "type": "bytes32"
        }
      ],
      "stateMutability": "pure",
      "type": "function"
    },
    {
      "inputs": [],
      "name": "chainId",
      "outputs": [
        {
          "internalType": "uint256",
          "name": "",
          "type": "uint256"
        }
      ],
      "stateMutability": "view",
      "type": "function"
    },
    {
      "inputs": [
        {
          "components": [
            {
              "internalType": "address",
              "name": "to",
              "type": "address"
            },
            {
              "internalType": "uint256",
              "name": "toChainId",
              "type": "uint256"
            },
            {
              "internalType": "bytes",
              "name": "data",
              "type": "bytes"
            }
          ],
          "internalType": "struct Message[]",
          "name": "messages",
          "type": "tuple[]"
        },
        {
          "internalType": "uint256[]",
          "name": "messageIds",
          "type": "uint256[]"
        },
        {
          "internalType": "address[]",
          "name": "senders",
          "type": "address[]"
        },
        {
          "internalType": "contract IOracleAdapter[]",
          "name": "oracleAdapters",
          "type": "address[]"
        }
      ],
      "name": "executeMessages",
      "outputs": [
        {
          "internalType": "bytes[]",
          "name": "",
          "type": "bytes[]"
        }
      ],
      "stateMutability": "nonpayable",
      "type": "function"
    },
    {
      "inputs": [
        {
          "internalType": "uint256",
          "name": "",
          "type": "uint256"
        }
      ],
      "name": "executed",
      "outputs": [
        {
          "internalType": "bool",
          "name": "",
          "type": "bool"
        }
      ],
      "stateMutability": "view",
      "type": "function"
    },
    {
      "inputs": [],
      "name": "hashi",
      "outputs": [
        {
          "internalType": "contract IHashi",
          "name": "",
          "type": "address"
        }
      ],
      "stateMutability": "view",
      "type": "function"
    },
    {
      "inputs": [],
      "name": "sender",
      "outputs": [
        {
          "internalType": "address",
          "name": "",
          "type": "address"
        }
      ],
      "stateMutability": "view",
      "type": "function"
    },
    {
      "inputs": [],
      "name": "yaho",
      "outputs": [
        {
          "internalType": "address",
          "name": "",
          "type": "address"
        }
      ],
      "stateMutability": "view",
      "type": "function"
    }
  ],
  "bytecode": "0x60e060405234801561001057600080fd5b50604051610e85380380610e8583398101604081905261002f91610062565b6001600160a01b03928316608052911660a05260c0526100a5565b6001600160a01b038116811461005f57600080fd5b50565b60008060006060848603121561007757600080fd5b83516100828161004a565b60208501519093506100938161004a565b80925050604084015190509250925092565b60805160a05160c051610d966100ef6000396000818160d7015281816104f40152610570015260008181610186015261059401526000818161015f01526104c70152610d966000f3fe608060405234801561001057600080fd5b50600436106100885760003560e01c8063d3ecebd71161005b578063d3ecebd714610127578063ec2cf2d51461015a578063ee4937ba14610181578063f0edcc5c146101a857600080fd5b806367e404ce1461008d5780636b6e93d5146100bd5780639a8a0592146100d2578063aafd6d6514610107575b600080fd5b6001546100a0906001600160a01b031681565b6040516001600160a01b0390911681526020015b60405180910390f35b6100c56101bb565b6040516100b491906107e8565b6100f97f000000000000000000000000000000000000000000000000000000000000000081565b6040519081526020016100b4565b61011a610115366004610a36565b61021d565b6040516100b49190610ba3565b61014a610135366004610c05565b60006020819052908152604090205460ff1681565b60405190151581526020016100b4565b6100a07f000000000000000000000000000000000000000000000000000000000000000081565b6100a07f000000000000000000000000000000000000000000000000000000000000000081565b6100f96101b6366004610c1e565b61072e565b6060600280548060200260200160405190810160405280929190818152602001828054801561021357602002820191906000526020600020905b81546001600160a01b031681526001909101906020018083116101f5575b5050505050905090565b6001546060906001600160a01b0316156102525760405163d86f2cb160e01b8152600060048201526024015b60405180910390fd5b8251855114158061026557508351855114155b156102855760405163018a4ee960e01b8152306004820152602401610249565b60005b82518110156102ff5760028382815181106102a5576102a5610c94565b602090810291909101810151825460018101845560009384529190922001805473ffffffffffffffffffffffffffffffffffffffff19166001600160a01b03909216919091179055806102f781610caa565b915050610288565b506000855167ffffffffffffffff81111561031c5761031c610802565b60405190808252806020026020018201604052801561034f57816020015b606081526020019060019003908161033a5790505b50905060005b865181101561071857600086828151811061037257610372610c94565b60209081029190910181015160008181529182905260409091205490915060ff16156103ba57604051634da89f7560e11b815230600482015260248101829052604401610249565b60006001600160a01b03168683815181106103d7576103d7610c94565b60200260200101516001600160a01b031603610438573086838151811061040057610400610c94565b602002602001015160405163708986dd60e11b81526004016102499291906001600160a01b0392831681529116602082015260400190565b6000818152602081905260408120805460ff19166001179055885189908490811061046557610465610c94565b6020026020010151905086838151811061048157610481610c94565b60209081029190910101516001805473ffffffffffffffffffffffffffffffffffffffff19166001600160a01b03928316179055604051633ab489d560e21b81526000917f0000000000000000000000000000000000000000000000000000000000000000169063ead2275490610520907f00000000000000000000000000000000000000000000000000000000000000009087908c90600401610cd1565b602060405180830381865afa15801561053d573d6000803e3d6000fd5b505050506040513d601f19601f820116820180604052508101906105619190610cf0565b6001549091506000906105c3907f00000000000000000000000000000000000000000000000000000000000000009086907f0000000000000000000000000000000000000000000000000000000000000000906001600160a01b03168761072e565b90508082146105fc5760405163838a8a3160e01b8152306004820152602481018590526044810183905260648101829052608401610249565b60008084600001516001600160a01b0316856040015160405161061f9190610d09565b6000604051808303816000865af19150503d806000811461065c576040519150601f19603f3d011682016040523d82523d6000602084013e610661565b606091505b50915091508161068d5760405163b9eaeae360e01b815230600482015260248101879052604401610249565b6001805473ffffffffffffffffffffffffffffffffffffffff19169055875181908990899081106106c0576106c0610c94565b60200260200101819052508560001b85602001517e769f3f82cb2a521c5b72f211aff687dae3cebd0b4631790417d1b17e15689a60405160405180910390a3505050505050808061071090610caa565b915050610355565b506107256002600061076a565b95945050505050565b60008585858585604051602001610749959493929190610d25565b60405160208183030381529060405280519060200120905095945050505050565b5080546000825590600052602060002090810190610788919061078b565b50565b5b808211156107a0576000815560010161078c565b5090565b600081518084526020808501945080840160005b838110156107dd5781516001600160a01b0316875295820195908201906001016107b8565b509495945050505050565b6020815260006107fb60208301846107a4565b9392505050565b634e487b7160e01b600052604160045260246000fd5b6040516060810167ffffffffffffffff8111828210171561083b5761083b610802565b60405290565b604051601f8201601f1916810167ffffffffffffffff8111828210171561086a5761086a610802565b604052919050565b600067ffffffffffffffff82111561088c5761088c610802565b5060051b60200190565b6001600160a01b038116811461078857600080fd5b6000606082840312156108bd57600080fd5b6108c5610818565b905081356108d281610896565b815260208281013581830152604083013567ffffffffffffffff808211156108f957600080fd5b818501915085601f83011261090d57600080fd5b81358181111561091f5761091f610802565b610931601f8201601f19168501610841565b9150808252868482850101111561094757600080fd5b808484018584013760008482840101525080604085015250505092915050565b600082601f83011261097857600080fd5b8135602061098d61098883610872565b610841565b82815260059290921b840181019181810190868411156109ac57600080fd5b8286015b848110156109c757803583529183019183016109b0565b509695505050505050565b600082601f8301126109e357600080fd5b813560206109f361098883610872565b82815260059290921b84018101918181019086841115610a1257600080fd5b8286015b848110156109c7578035610a2981610896565b8352918301918301610a16565b60008060008060808587031215610a4c57600080fd5b843567ffffffffffffffff80821115610a6457600080fd5b818701915087601f830112610a7857600080fd5b81356020610a8861098883610872565b82815260059290921b8401810191818101908b841115610aa757600080fd5b8286015b84811015610adf57803586811115610ac35760008081fd5b610ad18e86838b01016108ab565b845250918301918301610aab565b5098505088013592505080821115610af657600080fd5b610b0288838901610967565b94506040870135915080821115610b1857600080fd5b610b24888389016109d2565b93506060870135915080821115610b3a57600080fd5b50610b47878288016109d2565b91505092959194509250565b60005b83811015610b6e578181015183820152602001610b56565b50506000910152565b60008151808452610b8f816020860160208601610b53565b601f01601f19169290920160200192915050565b6000602080830181845280855180835260408601915060408160051b870101925083870160005b82811015610bf857603f19888603018452610be6858351610b77565b94509285019290850190600101610bca565b5092979650505050505050565b600060208284031215610c1757600080fd5b5035919050565b600080600080600060a08688031215610c3657600080fd5b85359450602086013593506040860135610c4f81610896565b92506060860135610c5f81610896565b9150608086013567ffffffffffffffff811115610c7b57600080fd5b610c87888289016108ab565b9150509295509295909350565b634e487b7160e01b600052603260045260246000fd5b600060018201610cca57634e487b7160e01b600052601160045260246000fd5b5060010190565b83815282602082015260606040820152600061072560608301846107a4565b600060208284031215610d0257600080fd5b5051919050565b60008251610d1b818460208701610b53565b9190910192915050565b85815284602082015260006001600160a01b038086166040840152808516606084015260a060808401528084511660a084015250602083015160c08301526040830151606060e0840152610d7d610100840182610b77565b9897505050505050505056fea164736f6c6343000811000a",
  "linkReferences": {},
  "deployedLinkReferences": {}
}